:100000000C943A000C94CF000C94CF000C94CF00C9
:100010000C94CF000C94CF000C94CF000C94CF0024
:100020000C94CF000C94CF000C94CF000C94CF0014
:100030000C94CF000C94CF000C94CF000C94CF0004
:100040000C94CF000C94CF000C94CF000C94CF00F4
:100050000C94CF000C94CF000C94CF000C94CF00E4
:100060000C94CF000C94CF00010001048001040126
:10007000070001AC11241FBECFEFD8E0DEBFCDBF1B
:10008000E8E6F0E040E017C0B591A59135912591E3
:10009000059107FD0CC095918591EF01F92FE82F8F
:1000A00005900D92A217B307D9F7FE0104C01D9267
:1000B000A217B307E1F7E437F40731F70E94C9004C
:0800C0000C94BE00F894FFCF80
:1000C8008091020190910301892B21F01092030184
:1000D8001092020180910601882319F08FEF88BDE4
:1000E80001C018BC2091020130910301F901EE0F03
:1000F800FF1FEC5FFE4F408151818091000190917C
:1001080001018417950758F010920101109200011F
:100118002F5F3F4F30930301209302010CC00196DB
:10012800909301018093000181E090910601911163
:1001380080E08093060182E890E00E94A400089580
:1001480020E030E008C0E9EFF0E03197F1F700C0B7
:0E01580000002F5F3F4F28173907A8F30895C6
:100166008AB180628AB984B5816284BD85B58260B0
:0601760085BD18BC0895D0
:10017C00EC010E94D4000E94D300CE010E94D50055
:06018C00CE010E94D1002B
:0C0192000E94B30078940E946400FDCF2E
:04019E000C940000BD
:0401A2000E94620055
:0201A6000895BA
:0201A8000895B8
:0201AA000895B6
:0201AC00FB0056
:0101AE00014F
:00000001FF
