:100000000C9438000C94EF000C94EF000C94EF006B
:100010000C94EF000C94EF000C94EF000C94EF00A4
:100020000C94EF000C94EF000C94EF000C94EF0094
:100030000C94EF000C94EF000C94EF000C94EF0084
:100040000C94EF000C94EF000C94EF000C94EF0074
:100050000C94EF000C94EF000C94EF000C94EF0064
:100060000C94EF000C94EF00010001060001EC007D
:1000700011241FBECFEFD8E0DEBFCDBFE8E6F0E031
:1000800040E017C0B591A59135912591059107FDE7
:100090000CC095918591EF01F92FE82F05900D92F5
:1000A000A217B307D9F7FE0104C01D92A217B30728
:1000B000E1F7EF36F40731F70E9462000C94E40098
:0400C000F894FFCFE2
:1000C400CF93DF9300D000D000D0CDB7DEB78AB194
:1000D40080628AB986E0E0E0F1E0DE0111960190E9
:1000E4000D928A95E1F760E070E05BC061157105DF
:1000F40089F4FB01EE0FFF1F21E030E02C0F3D1FC0
:10010400E20FF31F2081318133231CF531952195B2
:1001140031091FC0FB013197EE0FFF1F81E090E012
:100124008C0F9D1FE80FF91F80819181FB01EE0F59
:10013400FF1F21E030E02C0F3D1FE20FF31F208151
:100144003181821B930B9C0122F422273327281B25
:10015400390B60FD16C08BB180628BB940E050E072
:1001640006C084E08A95F1F700C04F5F5F4FC90174
:1001740033230CF4019695958795481759078CF30A
:100184000EC08BB18F7D8BB980E090E005C042E05A
:100194004A95F1F700C0019682179307C4F36F5F85
:1001A4007F4F633071050CF4A1CF8BB18F7D8BB978
:1001B4008FE392E42FE0815090402040E1F700C0AB
:0401C400000091CFD7
:1001C800EC010E94F4000E94F300CE010E94F500A9
:0601D800CE010E94F100BF
:0401DE000C9400007D
:0401E2000E94600017
:0201E60008957A
:0201E800089578
:0201EA00089576
:0601EC00FC006C018C0117
:00000001FF
