:100000000C9441000C94CC030C94CC030C94CC03C2
:100010000C94CC030C94CC030C94CC030C94CC0324
:100020000C94CC030C94CC030C94CC030C9487025A
:100030000C94CC030C94CC030C94CF020C94CC0302
:100040000C94CC030C94CC030C9449010C94CC0379
:100050000C94CC030C94CC030C94CC030C94CC03E4
:100060000C94CC030C94CC038D0095009D00A5004E
:10007000AD00B500BD00C500CD00D50001000108F0
:10008000800011241FBECFEFD8E0DEBFCDBFECE76C
:10009000F0E040E017C0B591A5913591259105910B
:1000A00007FD0CC095918591EF01F92FE82F059080
:1000B0000D92A217B307D9F7FE0104C01D92A21733
:1000C000B307E1F7E138F40731F70E9424030C94F9
:0600D0007603F894FFCF57
:1000D6000E9409036EC09DEC899F912D1124E92F82
:1000E600E695E695E6954E2F440FE42FEE0FEE0FBC
:1000F6004E0FE82FE41B892F8695869586954E2F01
:1001060050E04A30510508F054C0FA01EC5CFF4F4C
:100116000C94B5039091C00095FFFCCF90E39093AB
:10012600C60047C09091C00095FFFCCF91E3909325
:10013600C6003FC09091C00095FFFCCF92E390931C
:10014600C60037C09091C00095FFFCCF93E3909313
:10015600C6002FC09091C00095FFFCCF94E390930A
:10016600C60027C09091C00095FFFCCF95E3909301
:10017600C6001FC09091C00095FFFCCF96E39093F8
:10018600C60017C09091C00095FFFCCF97E39093EF
:10019600C6000FC09091C00095FFFCCF98E39093E6
:1001A600C60007C09091C00095FFFCCF99E39093DD
:0801B600C600811190CF0895ED
:1001BE000FC00E94A10338F00E94A80320F09523DF
:1001CE0011F00C94AF030C94C90311240C949B03EF
:1001DE000E94AD0270F3959FC1F3950F50E0551F2D
:1001EE00629FF001729FBB27F00DB11D639FAA277E
:1001FE00F00DB11DAA1F649F6627B00DA11D661FCD
:10020E00829F2227B00DA11D621F739FB00DA11DED
:10021E00621F839FA00D611D221F749F3327A00DA7
:10022E00611D231F849F600D211D822F762F6A2F43
:10023E0011249F5750409AF0F1F088234AF0EE0FA8
:10024E00FF1FBB1F661F771F881F91505040A9F7D5
:10025E009E3F510580F00C94AF030C949B035F3FBF
:10026E00E4F3983ED4F3869577956795B795F79511
:10027E00E7959F5FC1F7FE2B880F911D9695879589
:04028E0097F908953F
:100292001F920F920FB60F9211242F933F934F93F9
:1002A2005F936F937F938F939F93AF93BF93CF93FC
:1002B200EF93FF93C091C6008C2F90E00E949D01A6
:1002C200E0910701F0E0CF5FE050FF4FC0838091E3
:1002D200C00085FFFCCFE0910701F0E0E050FF4F46
:1002E20080818093C60080910701813071F4109261
:1002F20007018091000190910101880F282F220FA0
:10030200220F820F890F80930601809107018F5F70
:1003120080930701FF91EF91CF91BF91AF919F9190
:100322008F917F916F915F914F913F912F910F909C
:080332000FBE0F901F901895FB
:10033A00CF939B01482FF901849147FD8081803238
:10034A00C9F1682F082E000C770B695071096530C6
:10035A00710580F18B3249F5A0E0B0E02F5F3F4F85
:10036A004F4F02C0A0E0B0E080E090E0CAE0F9019F
:10037A00649147FD6081062E000C770B605371096A
:10038A006A30710560F4C89FF001C99FF00D11240D
:10039A002F5F3F4F4F4FCF01861B970BE8CFAB2BF9
:1003AA0069F491958195910909C08D32D9F6A1E038
:1003BA00B0E0D4CF2F5F3F4F4F4FBDCFCF910895BD
:1003CA00E89409C097FB3EF49095809570956195E5
:1003DA007F4F8F4F9F4F9923A9F0F92F96E9BB279B
:1003EA009395F695879577956795B795F111F8CF17
:1003FA00FAF4BB0F11F460FF1BC06F5F7F4F8F4F82
:10040A009F4F16C0882311F096E911C0772321F077
:10041A009EE8872F762F05C0662371F096E8862F0F
:10042A0070E060E02AF09A95660F771F881FDAF766
:0A043A00880F9695879597F90895AD
:10044400CF93DF9382E090E00E946B000E948B03C5
:1004540081E90E94810381E00E945D03C82F80E04E
:100464000E945D03D82F0E94BB036C2F70E0762F8F
:1004740066276D2B75956795759567957595679541
:1004840075956795759567957727072E000C880BEA
:10049400990B0E94E70120E030E040E05EE30E9417
:0C04A400BF030E949303DF91CF910895E5
:1004B0000E94B50288F09F5798F0B92F9927B7513D
:1004C000B0F0E1F0660F771F881F991F1AF0BA95F8
:1004D000C9F714C0B13091F00E949A03B1E00895B9
:1004E0000C949A03672F782F8827B85F39F0B93FAB
:1004F000CCF3869577956795B395D9F73EF49095AB
:0E0500008095709561957F4F8F4F9F4F0895A6
:10050E001F920F920FB60F9211242F933F934F937A
:10051E005F936F937F938F939F93AF93BF93EF935D
:10052E00FF930E94C3030E942202FF91EF91BF919D
:10053E00AF919F918F917F916F915F914F913F916D
:0C054E002F910F900FBE0F901F9018957A
:10055A0057FD9058440F551F59F05F3F71F047956A
:10056A00880F97FB991F61F09F3F79F0879508954F
:10057A00121613061406551FF2CF4695F1DF08C06E
:10058A00161617061806991FF1CF8695710561058B
:04059A000894089524
:10059E001F920F920FB60F9211248F939F938091FB
:1005AE000101909102010196909302018093010145
:1005BE0081E090E090930401809303019F918F91CD
:0A05CE000F900FBE0F901F901895BC
:1005D80081E090E00E946B001092B9008DEF80934B
:1005E800B80084E08093BC00E1E8F0E080818D6091
:1005F800808388E09DE39093890080938800EFE6EC
:0A060800F0E0808182608083089595
:10061200282F80E015C0880F982F990F990F890F06
:100622009DEC299F912D1124969596959695492F8B
:10063200440F342F330F330F340F231B820F292F14
:060642002111E9CF08952B
:10064800789487E690E00E946B030E94EC020E9477
:1006580039030E94C6032FE784E89EE121508040B9
:0A0668009040E1F700C00000F4CF5D
:1006720014BC15BC16BC84B5836084BD85B58A6084
:1006820085BD84E387BD8AE188BDEEE6F0E0808126
:06069200826080830895E0
:10069800092E0394000C11F4882352F0BB0F40F488
:1006A800BF2B11F460FF04C06F5F7F4F8F4F9F4FC8
:0206B8000895A3
:1006BA0020E4829FC001112484688093BC00809149
:0C06CA00BC008823E4F78091BB00089579
:1006D6009093C5008093C40088E98093C1008EE0A2
:0606E6008093C20008959C
:1006EC00EC010E94D1030E94D003CE010E94D203E0
:0606FC00CE010E94CE03B6
:100702008093BB0084E88093BC008091BC00882366
:04071200E4F708956B
:1007160084EA8093BC008091BC008823E4F70895A6
:0E0726000E945802862F90E00E946B000895FA
:0E073400E894BB2766277727CB0197F9089535
:0E07420000240A9416161706180609060895D4
:0E07500000240A9412161306140605060895D6
:0C075E0097F99F6780E870E060E0089564
:0C076A00EE0FFF1F0590F491E02D0994A4
:0807760084E98093BC000895A2
:08077E000E94DF000C944C0303
:06078600809105010895B9
:06078C00809106010895B2
:060792009FEF80EC0895CA
:040798000C940000BD
:04079C000E9469004E
:0207A0000895BA
:0207A2000895B8
:0207A4000895B6
:00000001FF
