:100000000C9441000C944F030C944F030C944F0339
:100010000C944F030C944F030C944F030C944F0318
:100020000C944F030C944F030C944F030C940B024D
:100030000C944F030C944F030C944F030C944F03F8
:100040000C944F030C944F030C942F020C944F0309
:100050000C944F030C944F030C944F030C944F03D8
:100060000C944F030C944F038D0095009D00A50048
:10007000AD00B500BD00C500CD00D50001000109EF
:10008000800011241FBECFEFD8E0DEBFCDBFECE76C
:10009000F0E040E017C0B591A5913591259105910B
:1000A00007FD0CC095918591EF01F92FE82F059080
:1000B0000D92A217B307D9F7FE0104C01D92A21733
:1000C000B307E1F7E138F40731F70E9490020C948E
:0600D000F402F894FFCFDA
:1000D6000E9475026EC09DEC899F912D1124E92F17
:1000E600E695E695E6954E2F440FE42FEE0FEE0FBC
:1000F6004E0FE82FE41B892F8695869586954E2F01
:1001060050E04A30510508F054C0FA01EC5CFF4F4C
:100116000C9435039091C00095FFFCCF90E390932B
:10012600C60047C09091C00095FFFCCF91E3909325
:10013600C6003FC09091C00095FFFCCF92E390931C
:10014600C60037C09091C00095FFFCCF93E3909313
:10015600C6002FC09091C00095FFFCCF94E390930A
:10016600C60027C09091C00095FFFCCF95E3909301
:10017600C6001FC09091C00095FFFCCF96E39093F8
:10018600C60017C09091C00095FFFCCF97E39093EF
:10019600C6000FC09091C00095FFFCCF98E39093E6
:1001A600C60007C09091C00095FFFCCF99E39093DD
:0801B600C600811190CF0895ED
:1001BE000FC00E94150338F00E941C0320F09523F7
:1001CE0011F00C942F030C944C0311240C940F0378
:1001DE000E94530270F3959FC1F3950F50E0551F87
:1001EE00629FF001729FBB27F00DB11D639FAA277E
:1001FE00F00DB11DAA1F649F6627B00DA11D661FCD
:10020E00829F2227B00DA11D621F739FB00DA11DED
:10021E00621F839FA00D611D221F749F3327A00DA7
:10022E00611D231F849F600D211D822F762F6A2F43
:10023E0011249F5750409AF0F1F088234AF0EE0FA8
:10024E00FF1FBB1F661F771F881F91505040A9F7D5
:10025E009E3F510580F00C942F030C940F035F3FCB
:10026E00E4F3983ED4F3869577956795B795F79511
:10027E00E7959F5FC1F7FE2B880F911D9695879589
:04028E0097F908953F
:10029200CF92DF92EF92FF92CF930E9440030E948F
:1002A2003B0381E90E9423030E943B0380E00E94FA
:1002B20023030E943B030E9440030E943B0380E908
:1002C2000E9423030E943B030E943B030E94FF0201
:1002D200C82F0E943B030E94DD02F82E0E943B03BE
:1002E2000E9444036C2F70E0762F66276F29769563
:1002F200762F662777956795660F672F661F770BB0
:10030200072E000C880B990B0E94A10120E030E01F
:1003120040E05FE30E9448036B017C010E940703F7
:100322007093060160930501C701B6010E9429037B
:0C033200CF91FF90EF90DF90CF900895E6
:10033E00E89409C097FB3EF4909580957095619571
:10034E007F4F8F4F9F4F9923A9F0F92F96E9BB2727
:10035E009395F695879577956795B795F111F8CFA3
:10036E00FAF4BB0F11F460FF1BC06F5F7F4F8F4F0E
:10037E009F4F16C0882311F096E911C0772321F004
:10038E009EE8872F762F05C0662371F096E8862F9C
:10039E0070E060E02AF09A95660F771F881FDAF7F3
:0A03AE00880F9695879597F908953A
:1003B8000E945B0288F09F5798F0B92F9927B75190
:1003C800B0F0E1F0660F771F881F991F1AF0BA95F1
:1003D800C9F714C0B13091F00E940E03B1E008953E
:1003E8000C940E03672F782F8827B85F39F0B93F30
:1003F800CCF3869577956795B395D9F73EF49095A4
:0E0408008095709561957F4F8F4F9F4F08959F
:100416001F920F920FB60F9211242F933F934F9373
:100426005F936F937F938F939F93AF93BF93EF9356
:10043600FF930E944901FF91EF91BF91AF919F9168
:100446008F917F916F915F914F913F912F910F9077
:080456000FBE0F901F901895D6
:10045E001F920F920FB60F9211248F93EF93FF936B
:10046E008091C6008053E0910801F0E0E050FF4F0C
:10047E008083809108018F5F80930801809108012D
:10048E00823011F410920801FF91EF918F910F902D
:08049E000FBE0F901F9018958E
:1004A60057FD9058440F551F59F05F3F71F047951F
:1004B600880F97FB991F61F09F3F79F08795089504
:1004C600121613061406551FF2CF4695F1DF08C023
:1004D600161617061806991FF1CF86957105610540
:0404E60008940895D9
:1004EA00282F80E015C0880F982F990F990F890F30
:1004FA009DEC299F912D1124969596959695492FB5
:10050A00440F342F330F330F340F231B820F292F3D
:06051A002111E9CF089554
:100520008FB780688FBF83E390E00E94E9020E944A
:10053000A9028AB182608AB98BB18D7F8BB9D0E074
:100540000E94D002C82FD817D9F30E945303DC2F82
:02055000F7CFE3
:100552001092B90080E28093B800E1E8F0E0808177
:100562008D60808388E09DE390938900809388006A
:0C057200EFE6F0E0808182608083089555
:10057E00092E0394000C11F4882352F0BB0F40F4A3
:10058E00BF2B11F460FF04C06F5F7F4F8F4F9F4FE3
:02059E000895BE
:1005A000E0E0F1E080819181880F282F220F220F57
:0A05B000820F890F80930701089560
:1005BA00ECEBF0E080818F7B808384E880830E946B
:0805CA003B038091BB00089582
:1005D2009093C5008093C40088E98093C1008EE0A7
:0605E2008093C2000895A1
:1005E800EC010E9455030E945403CE010E94560359
:0605F800CE010E94510338
:1005FE0084EC8093BC000E943B038091BB00089565
:0E060E000E94DC016894B1110C940F03089552
:0E061C00E894BB2766277727CB0197F908954E
:0E062A0000240A9416161706180609060895ED
:0E06380000240A9412161306140605060895EF
:0C0646008093BB0084E88093BC00089502
:0C0652000E94DC01862F0E946B000895BE
:0C065E0097F99F6780E870E060E0089565
:0C066A00EE0FFF1F0590F491E02D0994A5
:0A0676008091BC008823E4F708958A
:0806800084EA8093BC00089598
:0806880084E98093BC00089591
:080690000E94DF000C94BF0280
:060698009FEF80EC0895C5
:04069E000C940000B8
:0406A2000E94690049
:0206A6000895B5
:0206A8000895B3
:0206AA000895B1
:0206AC000895AF
:00000001FF
