:100000000C9434000C948D000C948D000C948D0095
:100010000C948D000C948D000C948D000C948D002C
:100020000C948D000C948D000C948D000C94660043
:100030000C948D000C948D000C948D000C948D000C
:100040000C948D000C948D000C947A000C948D000F
:100050000C948D000C948D000C948D000C948D00EC
:100060000C9470000C948D0011241FBECFEFD8E0CB
:10007000DEBFCDBF0E9484000C945B00F894FFCFDC
:100080008093C4009093C500E1ECF0E0808188612A
:100090008083808180688083E2ECF0E080818660EC
:1000A00080838081806C80838081886080838FB72B
:0600B00080688FBF089577
:1000B600EC010E9493000E949200CE010E949400DF
:0600C600CE010E948F0034
:1000CC001F920F920FB60F9211240F900FBE0F902C
:0400DC001F901895C4
:1000E0001F920F920FB60F9211240F900FBE0F9018
:0400F0001F901895B0
:1000F4001F920F920FB60F9211240F900FBE0F9004
:040104001F9018959B
:100108000E94910067E670E080E090E00E94400065
:02011800FFCF17
:04011A000C94000041
:04011E000E943E00FD
:0201220008953E
:0201240008953C
:0201260008953A
:02012800089538
:00000001FF
