:100000000C9441000C945B030C945B030C945B0315
:100010000C945B030C945B030C945B030C945B03E8
:100020000C945B030C945B030C945B030C943502FF
:100030000C945B030C945B030C945B030C945B03C8
:100040000C945B030C945B030C94D2010C945B0343
:100050000C945B030C945B030C945B030C945B03A8
:100060000C945B030C945B038D0095009D00A50030
:10007000AD00B500BD00C500CD00D5000100010CEC
:10008000800011241FBECFEFD8E0DEBFCDBFECE76C
:10009000F0E040E017C0B591A5913591259105910B
:1000A00007FD0CC095918591EF01F92FE82F059080
:1000B0000D92A217B307D9F7FE0104C01D92A21733
:1000C000B307E1F7E138F40731F70E947F020C949F
:0600D0000403F894FFCFC9
:1000D6000E949E026EC09DEC899F912D1124E92FEE
:1000E600E695E695E6954E2F440FE42FEE0FEE0FBC
:1000F6004E0FE82FE41B892F8695869586954E2F01
:1001060050E04A30510508F054C0FA01EC5CFF4F4C
:100116000C943E039091C00095FFFCCF90E3909322
:10012600C60047C09091C00095FFFCCF91E3909325
:10013600C6003FC09091C00095FFFCCF92E390931C
:10014600C60037C09091C00095FFFCCF93E3909313
:10015600C6002FC09091C00095FFFCCF94E390930A
:10016600C60027C09091C00095FFFCCF95E3909301
:10017600C6001FC09091C00095FFFCCF96E39093F8
:10018600C60017C09091C00095FFFCCF97E39093EF
:10019600C6000FC09091C00095FFFCCF98E39093E6
:1001A600C60007C09091C00095FFFCCF99E39093DD
:0801B600C600811190CF0895ED
:1001BE000FC00E941E0338F00E94250320F09523E5
:1001CE0011F00C9438030C94580311240C9418035A
:1001DE000E945D0270F3959FC1F3950F50E0551F7D
:1001EE00629FF001729FBB27F00DB11D639FAA277E
:1001FE00F00DB11DAA1F649F6627B00DA11D661FCD
:10020E00829F2227B00DA11D621F739FB00DA11DED
:10021E00621F839FA00D611D221F749F3327A00DA7
:10022E00611D231F849F600D211D822F762F6A2F43
:10023E0011249F5750409AF0F1F088234AF0EE0FA8
:10024E00FF1FBB1F661F771F881F91505040A9F7D5
:10025E009E3F510580F00C9438030C9418035F3FB9
:10026E00E4F3983ED4F3869577956795B795F79511
:10027E00E7959F5FC1F7FE2B880F911D9695879589
:04028E0097F908953F
:10029200CF93DF930E9449030E94440381E90E94A5
:1002A2002C030E94440380E00E942C030E94490315
:1002B2000E94440380E90E942C030E9444030E948E
:1002C20044030E940F03C82F0E9444030E94ED02C0
:1002D200D82F0E9444030E944D036C2F70E0762FAA
:1002E20066276D2B7695762F662777956795660F2D
:1002F200672F661F770B072E000C880B990B0E9445
:10030200970120E030E040E05EE30E9451036093F9
:1003120005017093060180930701909308010E94E2
:080322003203DF91CF91089531
:10032A00E89409C097FB3EF4909580957095619585
:10033A007F4F8F4F9F4F9923A9F0F92F96E9BB273B
:10034A009395F695879577956795B795F111F8CFB7
:10035A00FAF4BB0F11F460FF1BC06F5F7F4F8F4F22
:10036A009F4F16C0882311F096E911C0772321F018
:10037A009EE8872F762F05C0662371F096E8862FB0
:10038A0070E060E02AF09A95660F771F881FDAF707
:0A039A00880F9695879597F908954E
:1003A4001F920F920FB60F9211248F939F93EF9386
:1003B400FF93E6ECF0E0808180539081933751F411
:1003C400809109018F5F809309018230A0F010921F
:1003D400090111C0E0910B01F0E0E050FF4F808370
:1003E40080910B018F5F80930B0180910B01823010
:1003F40011F410920B01FF91EF919F918F910F9047
:080404000FBE0F901F90189528
:10040C000E94650288F09F5798F0B92F9927B75131
:10041C00B0F0E1F0660F771F881F991F1AF0BA959C
:10042C00C9F714C0B13091F00E941703B1E00895E0
:10043C000C941703672F782F8827B85F39F0B93FD2
:10044C00CCF3869577956795B395D9F73EF490954F
:0E045C008095709561957F4F8F4F9F4F08954B
:10046A001F920F920FB60F9211242F933F934F931F
:10047A005F936F937F938F939F93AF93BF93EF9302
:10048A00FF930E945503813011F40E944901FF91A4
:10049A00EF91BF91AF919F918F917F916F915F91F2
:1004AA004F913F912F910F900FBE0F901F9018956B
:1004BA0057FD9058440F551F59F05F3F71F047950B
:1004CA00880F97FB991F61F09F3F79F087950895F0
:1004DA00121613061406551FF2CF4695F1DF08C00F
:1004EA00161617061806991FF1CF8695710561052C
:0404FA0008940895C5
:1004FE0087B18F7C87B988B1806388B98FB78068E0
:10050E008FBF83E390E00E94F9020E94B9028AB184
:10051E0082608AB98BB18D7F8BB9D0E00E94E002E8
:0E052E00C82FD817D9F30E945F03DC2FF7CF38
:10053C00282F80E015C0880F982F990F990F890FDD
:10054C009DEC299F912D1124969596959695492F62
:10055C00440F342F330F330F340F231B820F292FEB
:06056C002111E9CF089502
:100572001092B90080E28093B800E1E8F0E0808157
:100582008D60808388E09DE390938900809388004A
:0C059200EFE6F0E0808182608083089535
:10059E00092E0394000C11F4882352F0BB0F40F483
:1005AE00BF2B11F460FF04C06F5F7F4F8F4F9F4FC3
:0205BE0008959E
:1005C000E0E0F1E080819181880F282F220F220F37
:0A05D000820F890F80930A0108953D
:1005DA00ECEBF0E080818F7B808384E880830E944B
:0805EA0044038091BB00089559
:1005F2009093C5008093C40088E98093C1008EE087
:060602008093C200089580
:10060800EC010E9461030E946003CE010E94620314
:06061800CE010E945D030B
:10061E0084EC8093BC000E9444038091BB0008953B
:0E062E00E894BB2766277727CB0197F908953C
:0E063C0000240A9416161706180609060895DB
:0E064A0000240A9412161306140605060895DD
:0C0658008093BB0084E88093BC000895F0
:0C0664000E940602862F0E946B00089581
:0C06700097F99F6780E870E060E0089553
:0C067C00EE0FFF1F0590F491E02D099493
:0A0688008091BC008823E4F7089578
:0806920084EA8093BC00089586
:08069A0084E98093BC0008957F
:0806A2000E94DF000C94CF025E
:0606AA0080910901089592
:0606B0009FEF80EC0895AD
:0406B6000C940000A0
:0406BA000E94690031
:0206BE0008959D
:0206C00008959B
:0206C200089599
:0206C400089597
:00000001FF
