:100000000C9441000C949F030C949F030C949F0349
:100010000C949F030C949F030C949F030C949F03D8
:100020000C949F030C949F030C949F030C947302F5
:100030000C949F030C949F030C949F030C949F03B8
:100040000C949F030C949F030C94DE010C949F036B
:100050000C949F030C949F030C949F030C949F0398
:100060000C949F030C949F038D0095009D00A500A8
:10007000AD00B500BD00C500CD00D50001000106F2
:10008000800011241FBECFEFD8E0DEBFCDBFECE76C
:10009000F0E040E017C0B591A5913591259105910B
:1000A00007FD0CC095918591EF01F92FE82F059080
:1000B0000D92A217B307D9F7FE0104C01D92A21733
:1000C000B307E1F7E138F40731F70E9436030C94E7
:0600D0004C03F894FFCF81
:1000D6000E94BB026EC09DEC899F912D1124E92FD1
:1000E600E695E695E6954E2F440FE42FEE0FEE0FBC
:1000F6004E0FE82FE41B892F8695869586954E2F01
:1001060050E04A30510508F054C0FA01EC5CFF4F4C
:100116000C948B039091C00095FFFCCF90E39093D5
:10012600C60047C09091C00095FFFCCF91E3909325
:10013600C6003FC09091C00095FFFCCF92E390931C
:10014600C60037C09091C00095FFFCCF93E3909313
:10015600C6002FC09091C00095FFFCCF94E390930A
:10016600C60027C09091C00095FFFCCF95E3909301
:10017600C6001FC09091C00095FFFCCF96E39093F8
:10018600C60017C09091C00095FFFCCF97E39093EF
:10019600C6000FC09091C00095FFFCCF98E39093E6
:1001A600C60007C09091C00095FFFCCF99E39093DD
:0801B600C600811190CF0895ED
:1001BE000FC00E94770338F00E947E0320F0952333
:1001CE0011F00C9485030C949C0311240C94710370
:1001DE000E94990270F3959FC1F3950F50E0551F41
:1001EE00629FF001729FBB27F00DB11D639FAA277E
:1001FE00F00DB11DAA1F649F6627B00DA11D661FCD
:10020E00829F2227B00DA11D621F739FB00DA11DED
:10021E00621F839FA00D611D221F749F3327A00DA7
:10022E00611D231F849F600D211D822F762F6A2F43
:10023E0011249F5750409AF0F1F088234AF0EE0FA8
:10024E00FF1FBB1F661F771F881F91505040A9F7D5
:10025E009E3F510580F00C9485030C9471035F3F13
:10026E00E4F3983ED4F3869577956795B795F79511
:10027E00E7959F5FC1F7FE2B880F911D9695879589
:04028E0097F908953F
:10029200CF93DF9300D00F92CDB7DEB788E8898382
:1002A20080E18A8388E98B838AB180628AB9E1E836
:1002B200F0E0808188608083808182608083E0E8D2
:1002C200F0E080818064808310E0E12EF12CE1E097
:1002D200F0E0EC0FFD1FEE0DFF1D608170E080E08D
:1002E20090E00E94A3012AE939E949E95FE30E940B
:1002F200950320E030E04AE754E40E94950320E0B1
:1003020030E040E05EE30E9495030E9444026150A7
:1003120071097093890060938800B19BFECF86B308
:10032200826086BB10FF04C09BB180E289278BB933
:10033200C70101966BE870E00E94EF02182FC5CF4B
:10034200E89409C097FB3EF490958095709561956D
:100352007F4F8F4F9F4F9923A9F0F92F96E9BB2723
:100362009395F695879577956795B795F111F8CF9F
:10037200FAF4BB0F11F460FF1BC06F5F7F4F8F4F0A
:100382009F4F16C0882311F096E911C0772321F000
:100392009EE8872F762F05C0662371F096E8862F98
:1003A20070E060E02AF09A95660F771F881FDAF7EF
:0A03B200880F9695879597F9089536
:1003BC001F920F920FB60F9211248F93EF93FF930E
:1003CC008091C600833751F4809104018F5F809334
:1003DC0004018230C8F01092040116C08053E091E1
:1003EC000501F0E0E050FF4F8083809105018F5FA5
:1003FC008093050180910501813031F080910501D8
:10040C00823011F010920501FF91EF918F910F90B6
:08041C000FBE0F901F90189510
:10042400CF93DF930E94610381E90E94570381E027
:100434000E942803C82F80E00E942803D82F0E941E
:1004440091036C2F70E0762F66276D2B7595679559
:100454007595679575956795759567957595679580
:100464007727072E000C880B990B0E94A30120E02C
:1004740030E040E05EE30E9495030E946903DF914F
:04048400CF91089577
:100488000E94A10288F09F5798F0B92F9927B75179
:10049800B0F0E1F0660F771F881F991F1AF0BA9520
:1004A800C9F714C0B13091F00E947003B1E008950B
:1004B8000C947003672F782F8827B85F39F0B93FFD
:1004C800CCF3869577956795B395D9F73EF49095D3
:0E04D8008095709561957F4F8F4F9F4F0895CF
:1004E6001F920F920FB60F9211242F933F934F93A3
:1004F6005F936F937F938F939F93AF93BF93EF9386
:10050600FF930E9499030E941202FF91EF91BF91FF
:10051600AF919F918F917F916F915F914F913F9195
:0C0526002F910F900FBE0F901F901895A2
:1005320057FD9058440F551F59F05F3F71F0479592
:10054200880F97FB991F61F09F3F79F08795089577
:10055200121613061406551FF2CF4695F1DF08C096
:10056200161617061806991FF1CF869571056105B3
:04057200089408954C
:10057600282F80E015C0880F982F990F990F890FA3
:100586009DEC299F912D1124969596959695492F28
:10059600440F342F330F330F340F231B820F292FB1
:0605A6002111E9CF0895C8
:1005AC001092B9008DEF8093B80084E08093BC006A
:1005BC00E1E8F0E080818D60808388E09DE390939A
:1005CC00890080938800EFE6F0E080818260808370
:0205DC00089580
:1005DE0097FB072E16F4009407D077FD09D00E94E2
:1005EE00030307FC05D03EF4909581959F4F089527
:0805FE00709561957F4F08958F
:10060600AA1BBB1B51E107C0AA1FBB1FA617B70732
:1006160010F0A61BB70B881F991F5A95A9F780954E
:080626009095BC01CD0108957F
:10062E00092E0394000C11F4882352F0BB0F40F4F2
:10063E00BF2B11F460FF04C06F5F7F4F8F4F9F4F32
:02064E0008950D
:1006500020E4829FC001112484688093BC008091B3
:0C066000BC008823E4F78091BB000895E3
:10066C00789487E690E00E9441030E94D6028CE0C9
:06067C000E944901FCCFC1
:100682009093C5008093C40088E98093C1008EE0F6
:060692008093C2000895F0
:10069800EC010E94A4030E94A303CE010E94A503BB
:0606A800CE010E94A10337
:1006AE008093BB0084E88093BC008091BC008823BB
:0406BE00E4F70895C0
:1006C20084EA8093BC008091BC008823E4F70895FB
:0E06D2000E944402862F90E00E946B00089563
:0E06E000E894BB2766277727CB0197F908958A
:0E06EE0000240A941616170618060906089529
:0E06FC0000240A94121613061406050608952B
:0C070A0097F99F6780E870E060E00895B8
:0C071600EE0FFF1F0590F491E02D0994F8
:0807220084E98093BC000895F6
:08072A000E94DF000C9417038C
:060732008091040108950E
:060738009FEF80EC089524
:04073E000C94000017
:040742000E946900A8
:02074600089514
:02074800089512
:02074A00089510
:00000001FF
