:100000000C9441000C946D030C946D030C946D03DF
:100010000C946D030C946D030C946D030C946D03A0
:100020000C946D030C946D030C946D030C94660298
:100030000C946D030C946D030C946D030C946D0380
:100040000C946D030C946D030C94DB010C946D0304
:100050000C946D030C946D030C946D030C946D0360
:100060000C946D030C946D0396009E00A600AE00E8
:10007000B600BE00C600CE00D600DE000100010BB7
:10008000800011241FBECFEFD8E0DEBFCDBFECE76C
:10009000F0E040E017C0B591A5913591259105910B
:1000A00007FD0CC095918591EF01F92FE82F059080
:1000B0000D92A217B307D9F7FE0104C01D92A21733
:1000C000B307E1F7E138F40731F70E943E020C94E0
:0600D0001603F894FFCFB7
:1000D600882339F09091C00095FFFCCF9BE2909366
:1000E600C6000E94B0026EC09DEC899F912D11241E
:1000F600E92FE695E695E6954E2F440FE42FEE0F91
:10010600EE0F4E0FE82FE41B892F86958695869570
:100116004E2F50E04A30510508F054C0FA01EC5C0D
:10012600FF4F0C9450039091C00095FFFCCF90E3D5
:100136009093C60047C09091C00095FFFCCF91E315
:100146009093C6003FC09091C00095FFFCCF92E30C
:100156009093C60037C09091C00095FFFCCF93E303
:100166009093C6002FC09091C00095FFFCCF94E3FA
:100176009093C60027C09091C00095FFFCCF95E3F1
:100186009093C6001FC09091C00095FFFCCF96E3E8
:100196009093C60017C09091C00095FFFCCF97E3DF
:1001A6009093C6000FC09091C00095FFFCCF98E3D6
:1001B6009093C60007C09091C00095FFFCCF99E3CD
:0A01C6009093C600811190CF0895B8
:1001D0000FC00E94300338F00E94370320F09523AF
:1001E00011F00C944A030C946A0311240C942A0312
:1001F0000E948E0270F3959FC1F3950F50E0551F3A
:10020000629FF001729FBB27F00DB11D639FAA276B
:10021000F00DB11DAA1F649F6627B00DA11D661FBA
:10022000829F2227B00DA11D621F739FB00DA11DDB
:10023000621F839FA00D611D221F749F3327A00D95
:10024000611D231F849F600D211D822F762F6A2F31
:1002500011249F5750409AF0F1F088234AF0EE0F96
:10026000FF1FBB1F661F771F881F91505040A9F7C3
:100270009E3F510580F00C944A030C942A035F3F83
:10028000E4F3983ED4F3869577956795B795F795FF
:10029000E7959F5FC1F7FE2B880F911D9695879577
:0402A00097F908952D
:1002A400CF93DF930E945B030E94560381E90E946F
:1002B4003E030E94560380E00E943E030E945B03BB
:1002C4000E94560380E90E943E030E9456030E9446
:1002D40056030E942103C82F0E9456030E94FF0266
:1002E400D82F0E9456030E945F036C2F70E0762F74
:1002F40066276D2B7695762F662777956795660F1B
:10030400672F661F770B072E000C880B990B0E9432
:10031400A00120E030E040E05EE30E9463036093CC
:1003240004017093050180930601909307010E94D4
:080334004403DF91CF9108950D
:10033C00E89409C097FB3EF4909580957095619573
:10034C007F4F8F4F9F4F9923A9F0F92F96E9BB2729
:10035C009395F695879577956795B795F111F8CFA5
:10036C00FAF4BB0F11F460FF1BC06F5F7F4F8F4F10
:10037C009F4F16C0882311F096E911C0772321F006
:10038C009EE8872F762F05C0662371F096E8862F9E
:10039C0070E060E02AF09A95660F771F881FDAF7F5
:0A03AC00880F9695879597F908953C
:1003B6001F920F920FB60F9211248F93EF93FF9314
:1003C6008091C600833751F4809108018F5F809336
:1003D60008018230C8F01092080116C08053E091DF
:1003E6000A01F0E0E050FF4F808380910A018F5FA1
:1003F60080930A0180910A01813031F080910A01CF
:10040600823011F010920A01FF91EF918F910F90B7
:080416000FBE0F901F90189516
:10041E000E94960288F09F5798F0B92F9927B751EE
:10042E00B0F0E1F0660F771F881F991F1AF0BA958A
:10043E00C9F714C0B13091F00E942903B1E00895BC
:10044E000C942903672F782F8827B85F39F0B93FAE
:10045E00CCF3869577956795B395D9F73EF490953D
:0E046E008095709561957F4F8F4F9F4F089539
:10047C0087B18F7C87B988B1806388B98FB7806862
:10048C008FBF83E390E00E940B030E94CB028AB1E2
:10049C0082608AB98BB18D7F8BB9D0E02FE38DE070
:1004AC0093E0215080409040E1F700C000000E9492
:1004BC00F202C82FD81791F30E947103DC2FEECFF4
:1004CC001F920F920FB60F9211242F933F934F93BD
:1004DC005F936F937F938F939F93AF93BF93EF93A0
:1004EC00FF930E946703813011F40E945201FF9127
:1004FC00EF91BF91AF919F918F917F916F915F9190
:10050C004F913F912F910F900FBE0F901F90189508
:10051C0057FD9058440F551F59F05F3F71F04795A8
:10052C00880F97FB991F61F09F3F79F0879508958D
:10053C00121613061406551FF2CF4695F1DF08C0AC
:10054C00161617061806991FF1CF869571056105C9
:04055C000894089562
:10056000282F80E015C0880F982F990F990F890FB9
:100570009DEC299F912D1124969596959695492F3E
:10058000440F342F330F330F340F231B820F292FC7
:060590002111E9CF0895DE
:100596001092B90080E28093B800E1E8F0E0808133
:1005A6008D60808388E09DE3909389008093880026
:0C05B600EFE6F0E0808182608083089511
:1005C200092E0394000C11F4882352F0BB0F40F45F
:1005D200BF2B11F460FF04C06F5F7F4F8F4F9F4F9F
:0205E20008957A
:1005E4008091000190910101880F282F220F220F82
:0A05F400820F890F8093090108951A
:1005FE00ECEBF0E080818F7B808384E880830E9427
:08060E0056038091BB00089522
:100616009093C5008093C40088E98093C1008EE062
:060626008093C20008955C
:10062C00EC010E9473030E947203CE010E947403BA
:06063C00CE010E946F03D5
:1006420084EC8093BC000E9456038091BB00089505
:0E065200E894BB2766277727CB0197F9089518
:0E06600000240A9416161706180609060895B7
:0E066E0000240A9412161306140605060895B9
:0C067C008093BB0084E88093BC000895CC
:0C0688000E940F02862F0E946B00089554
:0C06940097F99F6780E870E060E008952F
:0C06A000EE0FFF1F0590F491E02D09946F
:0A06AC008091BC008823E4F7089554
:0806B60084EA8093BC00089562
:0806BE0084E98093BC0008955B
:0806C6000E94E8000C94E1021F
:0606CE008091080108956F
:0606D4009FEF80EC089589
:0406DA000C9400007C
:0406DE000E9469000D
:0206E200089579
:0206E400089577
:0206E600089575
:0206E800089573
:00000001FF
